:100000000C942A000C9454000C9454000C9454004A
:100010000C9454000C9454000C9454000C94540010
:100020000C9454000C9454000C9454000C94540000
:100030000C9454000C9454000C9454000C945400F0
:100040000C9454000C9454000C9454000C945400E0
:100050000C94540011241FBECFE5D8E0DEBFCDBF05
:10006000E4E5F0E040E017C0B591A5913591259108
:10007000059107FD0CC095918591EF01F92FE82FAF
:1000800005900D92A217B307D9F7FE0104C01D9287
:10009000A217B307E1F7E435F40731F70E945600E1
:0800A0000C945200F894FFCF0C
:0400A8000C940000B4
:0200AC00FFCF84
:00000001FF
