:100000000C942E000C947F010C947F010C947F01C2
:100010000C947F010C947F010C947F010C947F0160
:100020000C947F010C947F010C947F010C947F0150
:100030000C947F010C947F010C947F010C947F0140
:100040000C947F010C947F010C947F010C947F0130
:100050000C947F01006000680003020011241FBEA1
:10006000CFE5D8E0DEBFCDBFE4E5F0E040E017C06B
:10007000B591A59135912591059107FD0CC09591FC
:100080008591EF01F92FE82F05900D92A217B30784
:10009000D9F7FE0104C01D92A217B307E1F7EB35B3
:1000A000F40731F70E9458000C945600F894FFCFE3
:1000B00041E060E080E00E94240141E061E080E0F6
:1000C0000E94240141E062E080E00E94240140E0BF
:1000D00060E083E00E94240140E061E083E00E9450
:1000E000240140E062E083E00E94240160E083E0BC
:1000F0000E9469018130C9F441E060E080E00E9423
:10010000E30040E061E080E00E94E30040E062E064
:1001100080E00E94E3002FE788E391E021508040D7
:100120009040E1F700C00000E1CF61E083E00E9471
:1001300069018130C9F440E060E080E00E94E300A2
:1001400041E061E080E00E94E30040E062E080E0A6
:100150000E94E3002FE788E391E021508040904027
:10016000E1F700C00000C2CF62E083E00E946901B5
:100170008130C9F440E060E080E00E94E30040E0AC
:1001800061E080E00E94E30041E062E080E00E94E4
:10019000E3002FE788E391E0215080409040E1F7B1
:1001A00000C00000A3CF40E060E080E00E94E300D8
:1001B00040E061E080E00E94E30040E062E080E037
:0601C0000E94E30093CF52
:1001C6001F93CF93DF93C82FD62F142F0E9453016E
:1001D600882381F1112319F01130B9F02DC0EC2FCD
:1001E600F0E0EE0FFF1FE05AFF4F0190F081E02D87
:1001F600228181E090E002C0880F991FDA95E2F72C
:1002060080958223828381E018C0EC2FF0E0EE0F08
:10021600FF1FE05AFF4F0190F081E02D228181E01F
:1002260090E002C0880F991FDA95E2F7822B82834D
:1002360081E003C080E001C081E0DF91CF911F9192
:02024600089519
:10024800442319F04130B1F028C0E82FF0E0EE0F58
:10025800FF1FE05AFF4F0190F081E02D218181E0DE
:1002680090E002C0880F991F6A95E2F78095822373
:10027800818313C0E82FF0E0EE0FFF1FE05AFF4F15
:100288000190F081E02D218181E090E002C0880F8B
:0E029800991F6A95E2F7822B818381E0089519
:1002A600E82FF0E0EE0FFF1FE05AFF4F0190F081BC
:1002B600E02D818190E002C0959587956A95E2F7D9
:0C02C60080FF02C081E0089580E00895F0
:1002D200E82FF0E0EE0FFF1FE05AFF4F0190F08190
:1002E200E02D808190E002C0959587956A95E2F7AE
:0C02F20080FF02C081E0089580E00895C4
:0402FE000C9400005C
:08030200390036003300300021
:00000001FF
